:020000040800F2
:1078000010A900202D7A0008E9B30008117B0008B8
:10781000B9AA0008D184000867D20008000000005F
:1078200000000000000000000000000071B7000828
:107830004F880008000000009B7A000861C2000821
:10784000477A0008477A0008477A0008477A000814
:10785000477A0008477A0008477A0008477A000804
:10786000477A0008477A0008477A0008477A0008F4
:10787000477A0008477A00087D850008477A0008A3
:10788000477A0008AD850008477A0008477A000863
:10789000477A0008477A0008477A0008477A0008C4
:1078A000477A0008477A0008477A0008477A0008B4
:1078B000477A0008477A0008477A0008477A0008A4
:1078C000477A0008477A0008477A0008477A000894
:1078D000477A000865CC0008D1CC000861CD0008CB
:1078E000477A0008477A0008477A0008477A000874
:1078F000D1C20008477A0008477A0008477A000892
:10790000477A0008477A0008477A0008477A000853
:10791000B9C9000855CA0008477A0008477A000824
:10792000477A0008477A0008477A0008D985000896
:1079300000F002F800F06AF80AA090E8000C824417
:107940008344AAF10107DA4501D100F05FF8AFF2F4
:10795000090EBAE80F0013F0010F18BFFB1A43F02D
:10796000010318475C0001007C00010010F8013B96
:107970000A4413F0030408BF10F8014B1D1108BF9F
:1079800010F8015B641E05D010F8016B641E01F84D
:10799000016BF9D1002D15D010F8014B03F00C0349
:1079A0000C2BA1EB04040ABF10F8013BA4EB8314D9
:1079B000A4EB032405F1010314F8016B5B1E01F82D
:1079C000016BF9D5914238BF10F8013BD1D3704714
:1079D0000023002400250026103A28BF78C1FBD8D8
:1079E000520728BF30C148BF0B607047642900F0C0
:1079F0007F81732900F01B84002070471FB59DE82C
:107A0000030000F055FB1FBD10B510BD00F081FC58
:107A10001146FFF7F3FF00F0F0FC00F09FFC03B409
:107A2000FFF7F2FF03BC05F00CFE00000948804799
:107A300009480047FEE7FEE7FEE7FEE7FEE7FEE750
:107A4000FEE7FEE7FEE7FEE704480549054A064B68
:107A50007047000071C200083179000810A30020AF
:107A600010A9002010A5002010A50020EFF3108021
:107A700072B6704780F310887047324A1368012B42
:107A800004D04FF0010313602F4A10602F4A116099
:107A90002F484FF0805101607047EFF3108272B6AB
:107AA0002848016891B14FF0000101602648016843
:107AB00029B1EFF3098121E9F00F00680160234942
:107AC00009680968B1E8F00F81F3098882F310882A
:107AD0004EF0040E70471D4908601B494FF000002E
:107AE000086018494FF0010008601A481A49D0F898
:107AF000002041EA0201016015484FF08051016009
:107B000016480068006880F3088861B662B670475E
:107B10001EF0040F0CBFEFF30880EFF3098020E99B
:107B2000F00F40F804ED1EF0040F0CBF80F308883E
:107B300080F3098800B506F055FE5DF804EB4EF0C1
:107B4000040E7047FC090020F4090020F809002009
:107B500004ED00E020ED00E00000FFFF08ED00E094
:107B6000704770B5064600F087FA056806F10B000D
:107B700020F00704B4429CBF002070BD2B466A6809
:107B8000BAB11068A04210D304F1080188423CBF8A
:107B90005068586007D35168101941601168091B7B
:107BA000016058601460101D70BD13465268002AB1
:107BB000E7D12146284600F067FA0028DED170BDE3
:107BC00070B50446051F00F057FA0068002C14BF7A
:107BD000446870BD002C18BFAC423CBF20466468AE
:107BE000F8D301680A18AA4218BF456003D12A6871
:107BF00005461144016028684119A1421CBF6C6010
:107C000070BD6168696021680844286070BD00002B
:107C10000FB4044910B503AA029800F00DFB10BC84
:107C20005DF814FBBC0200200FB41CB5074B06AA7C
:107C30007B4469460090059800F0CFFA0020694621
:107C400000F0DEFA1CBC5DF814FB0000CD0500005E
:107C500070B5044685690068C10601D5302600E08C
:107C60002026C00707D070BDD4E9012130469047D7
:107C7000206A401C20626D1EF6D570BD70B50446AA
:107C800085690078C00707D170BDD4E901212020A3
:107C90009047206A401C20626D1EF6D570BD70B5FD
:107CA0000C460546012A05D02878800600D5EA69E9
:107CB000002302E0012305E05B1C934202D2E05C5A
:107CC0000028F9D1A869E618C01AA861286A1844E2
:107CD00028622846FFF7BCFF04E0D5E9012114F82B
:107CE000010B9047B442F8D32846FFF7C7FF70BD99
:107CF0002DE9F0410646002410687529314616A585
:107D000010D0AFF30080002802DA404213A507E04C
:107D100031688A0701D512A502E0490704D511A5EB
:107D2000012401E0AFF3008000210A2206F12407BC
:107D300009E0B0FBF2FCB0FBF2F302FB1C003030B8
:107D400078541846491C0028F3D123462A46304669
:107D5000BDE8F04100F0E2B9000000002D00000095
:107D60002B000000200000002DE9F05F894604464A
:107D70004FF0000ADFF874B1FB44C0F820A02046A1
:107D8000E1688847002874D0252806D0D4E901216D
:107D90009047206A401C2062F1E700265F4620469B
:107DA000E16888472028054607DB312D05D2781980
:107DB00010F8200C08B10643F1E7B00701D526F012
:107DC0000406C4F81CA00027C4F818A02A2D09D066
:107DD000284605F03FFB38B304EB8708303DC8F870
:107DE000185019E059F8041B204604EB87029161F2
:107DF000E1688847012F054618D1E069002820DA9C
:107E000026F020061DE0D8F8180000EB800005EBF6
:107E100040003038C8F818002046E1688847054619
:107E200005F018FB0028EED1012F0AD02E2D08D125
:107E30002046E16888477F1C0546022F46F0200651
:107E4000C4DBA069002803DA404246F00106A061C5
:107E5000F00701D026F010066C2D0BD0682D09D04C
:107E60004C2D39D06A2D35D0742D35D07A2D33D0A4
:107E700016E038E0E1682F4620468847B8420546BC
:107E800009D16C2F26D04FF48060E168064320466C
:107E90008847054604E06C2F1AD04FF480700643E3
:107EA0000DB3A5F14100192802D8203546F400662B
:107EB0004A462946204626604E46FFF797FD80B188
:107EC00001280BD0F61D26F0070000F1080956E73F
:107ED0004020E4E78020D8E70020D6E706F1040937
:107EE0004DE7284652E7206ABDE8F09F62F70000A0
:107EF00030B505460B462A4613F8014B12F8010B24
:107F000008B1A042F8D01CB1002802D06D1CF1E7E6
:107F1000284630BD10B5431C02E010F8011B71B1BA
:107F20008107FAD14FF0013202C88C1A8C4314EA4F
:107F3000C211F9D0C01A0A0603D0C01E10BDC01A63
:107F400010BD0A0401D0801E10BD0902FCD0401EE5
:107F500010BD032A40F2308010F0030C00F01580B1
:107F600011F8013BBCF1020F624498BF11F801CB3C
:107F700000F8013B38BF11F8013BA2F1040298BFA1
:107F800000F801CB38BF00F8013B11F0030300F00B
:107F90006581083AC0F0088051F8043B083A51F86E
:107FA00004CBA0E80810F5E7121D5CBF51F8043BB4
:107FB00040F8043BAFF30080D20724BF11F8013B27
:107FC00011F801CB48BF11F8012B24BF00F8013B89
:107FD00000F801CB48BF00F8012B70474FF00002BA
:107FE0000429C0F0128010F0030C00F01B80CCF1CB
:107FF000040CBCF1020F18BF00F8012BA8BF20F839
:10800000022BA1EB0C0100F00DB85FEAC17C24BF8C
:1080100000F8012B00F8012B48BF00F8012B704736
:108020004FF0000200B5134694469646203922BF11
:10803000A0E80C50A0E80C50B1F12001BFF4F7AF5C
:10804000090728BFA0E80C5048BF0CC05DF804EB3E
:10805000890028BF40F8042B08BF704748BF20F8AC
:10806000022B11F0804F18BF00F8012B70477047AA
:10807000704770477047000000487047B4A2002066
:10808000704770477047704738B504460A4600206D
:108090006946AFF30080002808BF38BD024600994A
:1080A000204600F011F9012038BD012000F02AB966
:1080B000F8B5AFF30080054600200C46102000BF45
:1080C0000646A819A0420DD9324669460020AFF3F2
:1080D0000080070008BF00F015F90098A04218BF03
:1080E0000546C419FFF7C8FF05600746F01D20F0DC
:1080F00007004619284600F00AF8B44208BFF8BD48
:10810000A21B31463868BDE8F84000F0DDB8002118
:108110000160C0E901107047102070472DE9F04759
:108120000D4699469246044600F1240801688806E7
:1081300004D5E06921F01001216000E00120A8428F
:1081400001DD471B00E00027A1697A1902EB090055
:10815000081AA0612078C00602D42046FFF778FDF7
:10816000002608E0D4E901211AF806009047206AA9
:10817000401C761C20624E45F4DB2078C0060AD5F0
:108180002046FFF765FD06E0D4E901213020904745
:10819000206A401C2062381EA7F10107F4DC07E0CA
:1081A000D4E9012118F805009047206A401C20629C
:1081B000281EA5F10105F3DC2046FFF75FFD2078BE
:1081C000000602D50220BDE8F0870120FBE7000091
:1081D00001694A1C02610878704700B58FB0CDE98B
:1081E00001310021059105497944CDE9031011467B
:1081F0006846FFF7B9FD0FB000BD0000E5FFFFFFC7
:108200000A6802F8010B0A60704710B5436913B1A0
:10821000AFF3008001E0FFF742FD012010BD1278AE
:1082200000F124010A7000224A700122EDE7116872
:108230004FF0FF32E9E70000074B70B50D467B4475
:10824000FFF7CBFF0446284600F058F810B14FF076
:10825000FF3070BD204670BD6B55000010B5203A50
:10826000C0F00B80B1E81850203AA0E81850B1E8EF
:108270001850A0E81850BFF4F5AF5FEA027C24BFA5
:10828000B1E81850A0E8185044BF18C918C0BDE89C
:1082900010405FEA827C24BF51F8043B40F8043B65
:1082A00008BF7047D20728BF31F8023B48BF11F81A
:1082B000012B28BF20F8023B48BF00F8012B704774
:1082C00000487047ACA20020034640688C46002856
:1082D00018BF88423CBF03464068F8D3186818446A
:1082E000884207D00CF1030020F00700001D411A5E
:1082F000521A0146081D0A60FFF762BC007B00F0BD
:108300008000704710B500F037F8BDE8104000F06D
:108310002EB87546FFF7D4FFAE46050069465346B2
:1083200020F00700854618B020B5FFF78DFBBDE8AB
:1083300020404FF000064FF000074FF000084FF0CC
:10834000000B21F00701AC46ACE8C009ACE8C0095D
:10835000ACE8C009ACE8C0098D46704710B50446CA
:10836000AFF300802046BDE81040FFF758BB00285F
:1083700001D005F066B9704710B5012805D000217D
:1083800003A000F021F8012010BD09A1F8E70000CA
:1083900053494752544D454D3A204F7574206F66EE
:1083A0002068656170206D656D6F72790000000056
:1083B0003A2048656170206D656D6F727920636F3A
:1083C000727275707465640070B505460C460A20BB
:1083D00000E06D1C05F045F935B128780028F8D18A
:1083E00002E0641C05F03DF914B120780028F8D1B2
:1083F000BDE870400A2005F034B910B509F054FB0F
:10840000002010BD0021034A1170517011464860D0
:1084100070470000F405002070B504460D46052C99
:108420001CD2DFE804F003080D12170040F21A40D6
:108430000E49088012E040F602000C4908800DE069
:1084400040F221700949088008E040F69800074989
:10845000088003E0C8200549088000BF00BF1DB1A7
:108460004FF4E17000F0FEF970BD0000342C0140C3
:1084700008B5002000900121102003F029F8012107
:10848000102003F025F80120ADF8000010208DF831
:10849000030001208DF8020069460C4800F0D3FC6F
:1084A00001210A4800F0ADFD0220ADF800001020C7
:1084B0008DF8030001208DF802006946034800F0A2
:1084C000C2FC0221014800F09CFD08BD00100140E3
:1084D00000BFFEE730B502460B464FF0FF300021EB
:1084E00013E0545C604000240BE000F001052DB166
:1084F0004AF2010585EA600528B200E04010651CDB
:108500002CB2082CF1DB4C1C21B29942E9DB30BDC6
:1085100070B504460D4629462046FFF7DBFF0646A8
:10852000C6F307206055681C265470BD10B500F0D6
:1085300015FB04462146032000F0A4FA0446224617
:10854000094801680948006800F0D4F90446234648
:1085500007480268074801680748006800F022FAE7
:108560000446204610BD0000100300200C0300202C
:108570001C030020180300201403002010B54FF442
:10858000005000F005F960B14FF4005000F03CF8E5
:1085900004480021016141618161C161024800F02C
:1085A00041F810BD509200204400024010B54FF039
:1085B000007000F0EDF860B14FF0007000F024F8AA
:1085C0000021044800F02EF800214FF0804003F015
:1085D000C4FE10BD8000024010B5084800F0D8F875
:1085E00050B1064800F010F820210548FFF7F6FCCE
:1085F0000021044800F016F810BD00000000021031
:108600001C9300205804024000F0805111B103492E
:10861000086001E00249486070470000040402401D
:108620000000024021B1026842F00102026004E051
:1086300002684FF6FE731A400260704701684FF6F9
:10864000FE72114001600021016041608160C160E3
:108650004B49884208D14A490839496841F00F011D
:10866000474A083A51608AE045491431884208D1A6
:1086700043490839496841F0F001414A083A5160DC
:108680007DE03F492831884208D13D490839496891
:1086900041F470613A4A083A516070E038493C311F
:1086A000884208D136490839496841F47041344A52
:1086B000083A516063E032495031884208D130496C
:1086C0000839496841F470212D4A083A516056E052
:1086D0002B496431884208D129490839496841F455
:1086E0007001274A083A516049E0254978318842AB
:1086F00008D123490839496841F07061204A083A95
:1087000051603CE01F49884206D1011F096841F0D1
:108710000F01021F116032E01A491431884208D15A
:108720001849091F096841F0F001164A121F11602B
:1087300025E014492831884208D11249091F0968E7
:1087400041F470610F4A121F116018E00D493C316D
:10875000884208D10B49091F096841F47041094A50
:10876000121F11600BE007495031884207D10549BB
:10877000091F096841F47021024A121F11607047F5
:1087800008000240080402400146486880B2704771
:1087900001460020002201F0805313B1054B1A68F6
:1087A00001E0054B1A6802EA01030BB1012000E069
:1087B0000020704700040240000002401AB1036824
:1087C0000B43036002E003688B430360704710B5FE
:1087D0000022026847F6F0739A430C6A8B682343C1
:1087E0000C6923434C6923438C692343CC6923439D
:1087F0004C6A23438C6A23431A430260CB6843606C
:108800000B6883604B68C36010BD4160704770B5F2
:1088100004460D4600212046FFF704FF2946204666
:10882000FFF7F3FF01212046FFF7FCFE70BD70B596
:1088300004460D4600212046FFF7F4FE2946204657
:10884000FFF7E3FF01212046FFF7ECFE70BD704704
:10885000024908700121024A118070476C02002011
:108860006E02002030B50446002505E04FF47A7012
:1088700000F006F8681C85B2A542F7DB30BD0000A9
:1088800070B503460E4E367803FB06F400224FF017
:10889000E0267569B16910E04FF0E026B0698842C2
:1088A0000BD0884202D20E1A324402E02E1A0E4435
:1088B00032440146A24200D300E0EDE700BF70BDA4
:1088C0006C02002070B5DDE90445094E3668706120
:1088D000074E36683161064E3668F260044E3668DF
:1088E000B360034E36687460014E3668357070BDF3
:1088F00020030020F0B599B004460D461646002E20
:108900002BD02B46224616A16846FFF78DF9192277
:1089100018A1684603F0B6FA07466FB1164800681A
:1089200016A2E0214369052098474FF47A70FFF7BB
:1089300099FF012019B0F0BD0F48006813A2E02193
:108940004369052098474FF47A70FFF78BFF4FF487
:108950007A70FFF787FF0020ECE70020EAE70000CD
:1089600041542B43574A41503D222573222C222546
:10897000732200004F4B0000200300205769466916
:1089800020436F6E6E6563746564210057694669A4
:1089900020556E61626C6520436F6E6E6563746511
:1089A000642100002DE9F041B4B004460D4616469E
:1089B0001F4664211BA8FFF733FB002F34D02B4642
:1089C00022461AA11BA80096FFF72EF91BAA1BA18D
:1089D00002A8FFF729F919221CA102A803F052FAF4
:1089E0008046B8F1000F0ED01948006819A2F52191
:1089F0004369052098474FF47A70FFF733FF012051
:108A000034B0BDE8F0811248006817A2F52143692F
:108A1000052098474FF47A70FFF724FF4FF47A70DF
:108A2000FFF720FF0020EBE70020E9E72225732273
:108A30002C222573222C25730000000041542B4367
:108A4000495053544152543D257300004F4B000090
:108A50002003002053657276657220436F6E6E6549
:108A60006374656421000000536572766572205559
:108A70006E61626C6520436F6E6E65637465642120
:108A80000000000070B505460E46002E3CD035B102
:108A9000012D0BD0022D10D0032D17D114E00A2286
:108AA0001AA11BA003F0EEF9044611E00A2217A157
:108AB0001AA003F0E7F904460AE00A2213A11AA05B
:108AC00003F0E0F9044603E0012401E0002400BFC4
:108AD00000BF44B11748006817A2CB2143690520A5
:108AE0009847012070BD1348006818A2CB21436944
:108AF000052098474FF47A70FFF7B4FE4FF47A7070
:108B0000FFF7B0FE0020EDE70020EBE74F4B000041
:108B100041542B43574D4F44453D310041542B4365
:108B2000574D4F44453D320041542B43574D4F4420
:108B3000453D3300200300204D6F6465205365746C
:108B40002053756363657373210000004D6F646586
:108B500020536574204661696C21000010B50A221B
:108B60000FA110A003F08EF9044644B10E4800682E
:108B70000EA2B621436905209847012010BD0A487E
:108B800000680FA2B6214369052098474FF47A7018
:108B9000FFF768FE4FF47A70FFF764FE0020EDE700
:108BA0004F4B000041540000200300204553503833
:108BB00032363620446574656374656421000000B4
:108BC00045535038323636204E6F742044657465F4
:108BD000637465642100000030B5044604254FF439
:108BE000302000F083F80546042D17D10C480069A9
:108BF00040F002000A49086108464461006940F0FB
:108C0000400008614FF4302000F070F80546044839
:108C1000006941F6FD71084001490861284630BDF0
:108C20000020024004200B49C96801F0010109B18C
:108C300001200EE00749C96801F0040109B10220D2
:108C400007E00449C96801F0100109B1032000E000
:108C500004207047002002400348006940F0800073
:108C600001490861704700000020024070B50446C9
:108C70000D460426F00200F039F80646042E11D104
:108C80000948006940F00100074908612580F002A9
:108C900000F02CF806460448006941F6FE710840D1
:108CA00001490861304670BD0020024030B50346DE
:108CB0000C461546002207E0184600F008F824F894
:108CC00012009B1C501C82B2AA42F5DB30BD01464B
:108CD0000888704702480349486003484860704765
:108CE0002301674500200240AB89EFCD00B5024665
:108CF0000423FFF797FF034603E0FFF793FF0346C4
:108D0000521E012B01D1002AF7D102B905231846C2
:108D100000BD00002DE9F05F80468A461746B8F195
:108D2000006F02D33348804501D3BDE8F09FFFF7C1
:108D3000D1FFA8F1006B4FEADB26CBF34909C9F557
:108D40008064A74200DC3C464DE04FF0006101EB3F
:108D5000C6204A142849FFF7A9FF00250BE009EBBC
:108D60000500254931F810004FF6FF71884200D008
:108D700003E0681C85B2A542F1DB00BFA5421BDA07
:108D80004FF0006101EBC620FFF726FF002508E049
:108D90003AF8150005EB0901174A22F81100681C82
:108DA00085B2A542F4DB4FF0006101EBC6204A1406
:108DB000114900F023F804E022465146404600F0F5
:108DC0001DF8A74200D10FE0761C4FF000090AEB16
:108DD000440AA044381B87B2B7F5806F02DD4FF418
:108DE000806400E03C46B0E700BFFFF735FF00BFFE
:108DF0009BE7000000000408148A00202DE9F041E0
:108E000005460E461746002407E036F8141028469B
:108E1000FFF72CFFAD1C601C84B2BC42F5DBBDE843
:108E2000F08170B505460C462CB10122114628464A
:108E3000FFF770FF04E0012200212846FFF76AFFD8
:108E400008F07AFE70BD2DE9F041024600250026AB
:108E5000002000230024002791F803C00CF00F0528
:108E600091F803C00CF0100CBCF1000F03D091F886
:108E700002C04CEA050591F800C0BCF1000F31D0EA
:108E8000146800202BE04FF0010C0CFA00F3B1F84D
:108E900000C00CEA03069E4220D183004FF00F0C65
:108EA0000CFA03F7BC4305FA03FC4CEA040491F8FE
:108EB00003C0BCF1280F06D14FF0010C0CFA00FCE6
:108EC000C2F814C00AE091F803C0BCF1480F05D104
:108ED0004FF0010C0CFA00FCC2F810C0401C08282E
:108EE000D1D31460B1F800C0BCF1FF0F34DD546879
:108EF00000202EE000F1080C4FF0010808FA0CF3F6
:108F0000B1F800C00CEA03069E4221D183004FF065
:108F10000F0C0CFA03F7BC4305FA03FC4CEA0404FB
:108F200091F803C0BCF1280F05D100F1080C08FA34
:108F30000CF8C2F8148091F803C0BCF1480F07D1B7
:108F400000F1080C4FF0010808FA0CF8C2F8108084
:108F5000401C0828CED35460BDE8F081F0B50A4625
:108F6000002300240021002500F00046B6F1004F48
:108F700002D11D4EF16901E01B4E7168C0F303453B
:108F800083B200F44016B6F5401F08D121F070619D
:108F9000154E766826F07066134F7E6012E000F47E
:108FA0008016B6F5801F06D1032606FA05F4A14304
:108FB00041F0706106E0460D360103FA06F6B14352
:108FC00041F0706122B1460D360103FA06F63143D5
:108FD00000F00046B6F1004F02D1034EF16101E00E
:108FE000014E7160F0BD000000000140024600200B
:108FF00093680B400BB1012000E0002070474161F5
:10900000704701617047000070B504460D46164672
:109010004A480078401C494908700021042001F0AA
:1090200073FE01210020FFF7F7F90021084601F047
:109030006BFE0121084601F017FF24B900210A2028
:1090400001F062FE05E0012C03D10021022001F0B5
:109050005BFE4FF4C870FFF705FC01210220FFF70B
:10906000DBF90021284601F005FD3448007803288B
:1090700030DA33480078042806D006280BD00A28B6
:1090800010D00C2820D114E000232A4601211846D4
:1090900002F094FF18E000232A460121084602F05E
:1090A0008DFF11E000232A460121184602F086FFB9
:1090B0000AE000210B2001F027FE00232A460121AF
:1090C000084602F07BFF00BF00BF0021084601F008
:1090D0001BFE2CE01A480078042806D006280BD086
:1090E0000A280FD00C281ED113E000232A460121A4
:1090F000184602F063FF16E02822052111A002F0B5
:1091000049FF10E000232A460121184602F056FFCD
:1091100009E0282205210CA002F03CFF00210846AE
:1091200001F0F2FD00BF00BF0020044908701EB12D
:109130000021084601F098FE70BD00007007002075
:10914000040A00205E4A5F005E465F0010B50446D8
:109150002D480078401C2C49087000210220FFF7A0
:109160005BF90021012001F0CFFD01210020FFF774
:1091700053F90021084601F0C7FD0121002001F04C
:1091800073FE0121042001F0BFFD01210846FFF715
:1091900043F91E480078042814D11B48007803289E
:1091A00006DA002322461946184602F007FF21E09E
:1091B000002322461946012002F000FF0020124938
:1091C000087017E0114800780A2813D10E4800787B
:1091D000032806DA002322461946184602F0EEFE5E
:1091E00008E0002322461946012002F0E7FE002095
:1091F000054908700021204601F03CFC00210120B7
:1092000001F032FE10BD000071070020040A0020AA
:109210004CF6CC4001490860704700000030004027
:1092200010B500F013F810BD70B505460C4645F2B8
:10923000555000F01FF8284600F010F8204600F0C6
:1092400013F800F003F8FFF7E3FF70BD4AF6AA2019
:109250000149086070470000003000400149486043
:1092600070470000003000400149886070470000EE
:1092700000300040014908607047000000300040A5
:109280002DE9F04106460D46002704242E480079BA
:1092900018B90021284601F0EDFB00202A4948704A
:1092A00006B101274BE028484078622807D067289C
:1092B00003D0722805D1012405E0022403E0032431
:1092C00001E0042400BF00BF042C35D01FB10027EB
:1092D0001E48047030E01C48007980B11B480078BB
:1092E000844229D0194804700021204601F0C2FBB5
:1092F0004FF44870FFF7B6FA03F006FB20E096B192
:109300001248007884420BD0AC4209D14FF4FA7075
:10931000FFF7A8FAC820FFF7A5FA03F0F5FA0FE067
:109320000A48047008E0AC4206D14FF42F70FFF7F2
:1093300099FA03F0E9FA03E00A20FFF793FAB2E79B
:1093400000BFBDE8F0810000040200207307002088
:1093500010B50446002C6ED0012C04D0022C49D04C
:10936000032C69D177E021464648006805F0E6FE07
:109370004548807818B145A005F0D8FB39E047484A
:109380000068C8B14548006890F8340038B944A076
:1093900005F0CCFB4148006807F098FD0CE03F4821
:1093A000006890F83400022806D144A005F0BEFB06
:1093B0003A48006807F000FD3348C07818B145A06E
:1093C00005F0B4FB12E04A48006878B149480068EB
:1093D00090F8340038B948A005F0A8FB444800686C
:1093E00007F074FD02E04BA005F0A0FB0120264928
:1093F000887045E021462348006805F09FFE22481A
:109400008078D0B12048C07818B132A005F08EFB2A
:1094100020E03748006807F0BBFD3648006830B1EF
:1094200043A005F083FB3348006807F04FFD01209F
:109430001549C8700EE021E021E02E48006830B1E7
:109440003BA005F073FB2B48006807F03FFD0120AF
:109450000D49C87014E021460A48006805F06EFE08
:109460000948807848B139A005F060FB0020064922
:1094700088700A48006807F08BFD01E000E000BF3B
:1094800000BF10BD8C0100200402002053797374CA
:10949000656D20537461727465640A009001002048
:1094A0004D61696E4374726C2074687265616420EA
:1094B000737563636573730A000000004D61696E24
:1094C0004374726C20746872656164207265737590
:1094D0006D650A004C636444656275672074687248
:1094E00065616420616C72656164790A0000000046
:1094F0009C010020A00100204C63644E6F726D61DE
:109500006C2074687265616420737563636573733E
:109510000A0000004C63644E6F726D616C207468C9
:109520007265616420616C72656164790A00000093
:109530004C63644465627567207468726561642079
:10954000737563636573730A000000005379737465
:10955000656D2073757370656E640A000848FEF7C8
:1095600051FF0022052107A005F098FC074908607B
:1095700004E000F00DF80A2007F046FAF9E70000D1
:10958000519300084B65794D61696C008C01002096
:1095900010B500F031F8094908700846007849789C
:1095A00088420AD00548406818B1044A10785168CA
:1095B0008847024800780149487010BDF405002032
:1095C00010B504210148FFF711FD10BD0010014046
:1095D00008B5002000900121102001F079FF4820FB
:1095E0008DF803000420ADF8000069460148FFF73C
:1095F0002AFC08BD0010014010B5FFF7E1FF78B963
:109600001F4800680A301E49086000201D49086094
:109610001B48006840F2DC5188422ED3032010BD65
:10962000FFF7CEFF012828D116480068401C1549D5
:109630000860084600680A281FD900200860104802
:109640000068142817D30E480068B0F5AF7F04D81F
:1096500000200B4908600120E1E70948006840F25A
:10966000DC51884204D80020054908600220D6E772
:109670000020034908600020D1E70020CFE7000068
:10968000FC0500200006002070B5054605B3FFF775
:1096900097FFE0B91420FFF7E5F8FFF791FFA0B9B5
:1096A00003E01420FFF7DEF8641CFFF789FF0028B1
:1096B000F7D0032C04D9322C02D20024012070BD33
:1096C000782C04D900240220F9E70020F7E70CE009
:1096D000FFF776FF48B91420FFF7C4F8FFF770FFD3
:1096E00008B90120EBE70020E9E70020E7E70000E8
:1096F00010B525488089401E83B223484089401E0A
:1097000082B20021084600F09BFB204800884FF6FB
:10971000BF7108401D4908800846008840F4006079
:1097200008800846008840F0400008801020184952
:109730000860002408E014488088144988810121C9
:109740001448FFF774F8641C0F4840890E49898952
:109750004843A042EFD810200D49091F08600B486C
:1097600000884FF6BF710840084908800846008805
:109770004FF2FF710840054908800846008840F014
:109780004000088010BD00007C9C0020003001409B
:10979000140C0140300002402DE9F04106460F460E
:1097A00014461D467819401E83B23019401E82B2FD
:1097B0003946304600F044FB1F4800884FF6BF7121
:1097C00008401D4908800846008840F40060088071
:1097D0000846008840F040000880102017490860C3
:1097E0004FF000080BE0164880881349888101215A
:1097F0001448FFF71CF808F101001FFA80F804FB79
:1098000005F04045EFDC10200C49091F08600A48AC
:1098100000884FF6BF710840074908800846008855
:109820004FF2FF710840044908800846008840F064
:1098300040000880BDE8F08100300140140C014078
:109840007C9C00203000024000B591B000201090B8
:1098500014210BA8FEF7E4FB2C216846FEF7E0FB81
:109860000121082001F034FE0121084601F030FEFC
:109870000121080301F02CFE0121084601F0F8FD4A
:1098800001214F48FFF76AFB01210846FFF766FBFD
:1098900018208DF8430003208DF842000820ADF811
:1098A000400010A94748FFF7CEFA18208DF8430072
:1098B00003208DF842002020ADF8400010A9414857
:1098C000FFF7C1FA10208DF8430003208DF8420005
:1098D0001020ADF8400010A93A48FFF7B4FA102163
:1098E0003848FFF78EFB10208DF8430003208DF8D9
:1098F00042004020ADF8400010A93248FFF7A3FA1B
:1099000040213048FFF77DFB10208DF843000320F5
:109910008DF842008020ADF8400010A92948FFF7DB
:1099200092FA80212748FFF76AFB274801F0D6FE0C
:109930004FF44040ADF82C004FF48270ADF82E008B
:109940000020ADF83000ADF83200ADF834004FF42F
:109950000070ADF836000820ADF838000020ADF8F2
:109960003A000720ADF83C000BA9174801F0E2FED1
:109970000121154801F0A6FE1448FEF75FFE1248CB
:109980000C300090124801901020029000010390CA
:1099900000200490802005900020069007900890F9
:1099A0004FF48050099000200A9069460748FEF75E
:1099B0000EFF00210548FEF735FE11B000BD000086
:1099C00000023000000C0140003001403000024035
:1099D0007C93002008B50DE00021009104E0BDF863
:1099E0000010491C89B20091BDF8001041F2883284
:1099F0009142F4DB011EA0F10100EDD108BD000091
:109A00002DE9F04707468846144600250026A9465A
:109A1000A4F12000C4B210202B49086000BF30E040
:109A20002A480068006829490968098904FB01512E
:109A300010F801A000201FE00AF0010129B124491B
:109A40000988244A22F8161004E021498988214A0D
:109A500022F816104FEA6A0A711C8EB209F1010150
:109A60001FFA81F9194909688988494502D14FF0DF
:109A7000000903E0411C88B20828DDDB00BF681C38
:109A800085B2124800680089A842C9DC0F48006806
:109A9000C0884044401E83B20C4800688088384427
:109AA000401E82B24146384600F0CAF907480068B5
:109AB0008088064A1268D288504381B2054800F077
:109AC0007BFABDE8F0870000140C0140640500201B
:109AD0007C9C00207C9400202DE9FF4106460F4627
:109AE00014461D460B48007A30B923462A460AA17F
:109AF0006846FEF799F805E023462A4608A168461D
:109B0000FEF792F86A463946304600F00BF8BDE899
:109B1000FF8100007C9C002025302E2A640000007C
:109B2000252A640070B505460E4614460AE02278E0
:109B300031462846FFF764FF0648006880882844BD
:109B400085B2641C04484089A84202DD20780028C0
:109B5000EDD170BD640500207C9C00202DE9F04F04
:109B600087B005460F46144698460595B9464FF00E
:109B7000000AD3464FF48060B0FBF8FB002676E085
:109B80000020049030E0109800780690002021E03A
:109B9000069901F0010129B137490988374A22F8AD
:109BA0001A1004E034498988344A22F81A100699B8
:109BB000491006910599491C89B205910AF10101E4
:109BC0001FFA81FA0599491BA14201D1059503E0CD
:109BD000411C88B20828DBDB00BF1098401C1090A5
:109BE0000498401C80B20490204608F04DFB4FF0D2
:109BF0008241019008F06EFA0390049808F044FB4B
:109C00000290039908F054FBBDD30BFB04F05045C0
:109C100016D14FF0000A09EB0B00401E83B2281941
:109C2000401E82B24946284600F00AF904FB0BF0B8
:109C300081B2124800F0C0F909EB0B001FFA80F95D
:109C4000701C404511D1F01983B22819401E82B210
:109C50004946284600F0F4F8701C3844A0EB09008F
:109C6000604381B2054800F0A7F9701C86B24645F2
:109C700086DB07B0BDE8F08F7C9C00207C94002040
:109C800010B5FFF7E1FD0520FFF7A4FE10206A499B
:109C90000860362000F0D2F9002000F0F9F93A20EF
:109CA00000F0CCF9052000F0F3F9B22000F0C6F97D
:109CB0000C2000F0EDF90C2000F0EAF9002000F093
:109CC000E7F9332000F0E4F9332000F0E1F9B720A0
:109CD00000F0B4F9352000F0DBF9BB2000F0AEF95C
:109CE000192000F0D5F9C02000F0A8F92C2000F0D0
:109CF000CFF9C22000F0A2F9012000F0C9F9C32079
:109D000000F09CF9122000F0C3F9C42000F096F98D
:109D1000202000F0BDF9C62000F090F90F2000F0DF
:109D2000B7F9D02000F08AF9A42000F0B1F9A12001
:109D300000F0AEF9E02000F081F9D02000F0A8F9A1
:109D4000042000F0A5F90D2000F0A2F9112000F088
:109D50009FF9132000F09CF92B2000F099F93F2087
:109D600000F096F9542000F093F94C2000F090F99F
:109D7000182000F08DF90D2000F08AF90B2000F07A
:109D800087F91F2000F084F9232000F081F9E120F9
:109D900000F054F9D02000F07BF9042000F078F9AD
:109DA0000C2000F075F9112000F072F9132000F07A
:109DB0006FF92C2000F06CF93F2000F069F9442085
:109DC00000F066F9512000F063F92F2000F060F9EF
:109DD0001F2000F05DF91F2000F05AF9202000F04C
:109DE00057F9232000F054F9212000F027F9112021
:109DF00000F024F97820FFF7EDFD292000F01EF98E
:109E000010200D49091F0860032000F07BF8002096
:109E100000F050F86FF07F4000F060F8FFF768FC4A
:109E2000064800F041F8012000F0C0F88020024907
:109E3000091F086010BD0000140C014078050020C7
:109E40002DE9F04104460D4616461F4610201449E0
:109E500008602A2000F0F2F81249897B214488B278
:109E600000F002F90F49897B314488B200F0FCF818
:109E70002B2000F0E3F80B49C97B294488B200F09D
:109E8000F3F80849C97B394488B200F0EDF82C207A
:109E900000F0D4F810200249091F0860BDE8F081E5
:109EA000140C01407C9C00200149086070470000B0
:109EB0006405002030B500230021002200F478045E
:109EC000230A00F47C446109C0F3C40243EA01049C
:109ED0001443014D6C6030BD7C9C002030B50023E4
:109EE0000021002200F47804230A00F47C44610974
:109EF000C0F3C40243EA01041443014D2C6030BD99
:109F00007C9C002010B50446264844721020264947
:109F10000860362000F092F834B1012C20D0022CD9
:109F200010D0032C38D129E0702000F0B1F81420B3
:109F30001C4988730020C8734FF48C704881F0204E
:109F4000888129E0002000F0A3F8002015498873DB
:109F50001420C873F02048814FF48C7088811BE076
:109F6000A02000F095F814200E4988730020C873D3
:109F70004FF48C704881F02088810DE0C02000F003
:109F800087F80020074988731420C873F02048819F
:109F90004FF48C70888100BF00BF10200249091F58
:109FA000086010BD7C9C0020140C0140014908721F
:109FB000704700007C9C002070B505460E461C488A
:109FC00000884FF6BF71084019490880084600888C
:109FD00040F4006008800846008840F04000088097
:109FE000102014490860002408E035F814001049D6
:109FF000888101211048FEF71AFC641CB442F4D396
:10A0000010200C49091F0860094800884FF6BF71ED
:10A01000084007490880084600884FF2FF71084051
:10A02000034908800846008840F04000088070BD61
:10A0300000300140140C01403000024010B50446CD
:10A040004020064908600648848101210548FEF742
:10A05000EEFB40200149091F086010BD140C0140AF
:10A06000003001403000024010B50446201206497D
:10A07000888101210548FEF7DAFB0348848101212C
:10A080000248FEF7D4FB10BD003001403000024012
:10A0900010B504460348848101210348FEF7C7FB3D
:10A0A00010BD0000003001403000024008B5002023
:10A0B00000900121082001F00BFA0420ADF8000007
:10A0C00010208DF8030001208DF802006946044835
:10A0D000FEF7B9FE04210248FEF793FF08BD000019
:10A0E000000C01401CB50125FFF702FB6D48FFF78E
:10A0F000DBFE6DA205214E20FFF714FD6CA223218B
:10A100000520FFF70FFD6DA241210520FFF70AFD95
:10A110006DA25F210520FFF705FD6EA27D210520C0
:10A12000FFF700FD6EA29B210520FFF7FBFC6FA24D
:10A13000B9210520FFF7F6FC6FA2D7210520FFF714
:10A14000F1FC70A223216E20FFF7ECFC6DA24121EF
:10A150006E20FFF7E7FC6BA25F216E20FFF7E2FCA9
:10A160006A487D2102686E20FFF7DCFC68489B216D
:10A1700002686E20FFF7D6FC62A2B9216E20FFF7BD
:10A18000D1FC60A2D7216E20FFF7CCFC88E0002232
:10A1900069466048006804F0D7FE064656B91923A0
:10A1A000322223216E20FFF7F7FA23216E20009A36
:10A1B000FFF7B8FC5848007970B100205649087183
:10A1C0001923322241216E20FFF7E6FA53484278E4
:10A1D00041216E20FFF714FC5148007968B100203E
:10A1E0004F490871192384225F216E20FFF7D4FAAA
:10A1F0004C4A5F216E20FFF795FC002201A94A48D6
:10A20000006804F0A1FE044674B919235A227D2186
:10A210006E20FFF7C1FA3D489DF8041050F8212048
:10A220007D216E20FFF77EFC404800783F49897809
:10A2300088420ED019236E229B211046FFF7ACFAFC
:10A240003A480078324951F820209B216E20FFF7D0
:10A2500069FC3648406870B16DB1002519236E2243
:10A26000B9211046FFF798FA304842680623B92111
:10A270006E20FFF731FC2E48007968B100202C4990
:10A28000087119238422D7216E20FFF785FA294A05
:10A29000D7216E20FFF746FC322006F0B5FB00BF49
:10A2A00075E70000780500202A44656275672A007A
:10A2B00053656E644361723A000000005265636545
:10A2C0004361723A000000005152636F6465733A53
:10A2D000000000004F6C644B6579733A0000000089
:10A2E0004E6F775461736B3A000000004E6F7743F6
:10A2F0006F64653A00000000425476616C75653AFF
:10A30000000000004E554C4C000000001C090020CD
:10A31000E008002088010020209200200402002094
:10A320002C920020D29200208C010020040A0020F0
:10A33000389200203C9300201CB526E001A84FF085
:10A34000FF3306220F2100901048006803F09EFDA5
:10A350000198012806D0022808D004280BD008282C
:10A3600011D10CE00AA001F005FA0DE00B49486894
:10A3700001F014FA08E00AA001F0FCF904E00CA0D6
:10A3800001F0F8F900E000BF00BFD7E7800100202E
:10A3900053746172742052756E210000040A00200B
:10A3A00048656C6C6F20576F726C64210000000070
:10A3B00053797374656D204572726F7221000000CD
:10A3C00010B5044600BF0848C06880F00100064987
:10A3D000C86000BF00BF0846C06880F00200C860C7
:10A3E00000BFFEF71DFF10BD001001400121FCA0C1
:10A3F00003F00AFDFE49086030E3FE4800780F28AC
:10A400007DD2DFE800F0081E43A1C0FEFDFCFBFA90
:10A41000F9F8F7F6F50000BF0420F749086000BF1F
:10A420000121F348006803F02DFE28220221F3A049
:10A4300001F0B0FDEF480078EE4988700120087007
:10A4400008E3EC48406800B30221E948006803F0E3
:10A4500019FE4FF0FF31EA48006805F0EBFB0021E0
:10A460000220FDF7D9FF0021012000F0FDFC0021B2
:10A47000092000F049FCE248006805F0F7FADD48E1
:10A480000078DC49887002200870E3E2DD484078FB
:10A49000512858D10020DB494870411ED848006837
:10A4A00005F0C8FBD34880686421B0FBF1F0C4B26A
:10A4B00021460120FEF7E4FECE4880680A21B0FB69
:10A4C000F1F0B0FBF1F201FB120421460020FEF78F
:10A4D000D7FEC84880680A21B0FBF1F201FB1204E4
:10A4E00021460020FEF7CCFE4FF47A7006F08CFA7D
:10A4F0004FF47A7006F088FA4FF47A7000E0A3E225
:10A5000006F082FA0021012000F0AEFC00210220BA
:10A51000FDF782FF0021052000F0F6FBB5488068BA
:10A520006421B0FBF1F0C4B20021204600F0A2FA91
:10A53000B348006805F09AFAAE480078AD49487013
:10A5400088700E20087085E2AE484078512819D1F5
:10A550000020AC494870411EA948006805F06AFB1C
:10A560000021084600F0D0FB0021084600F07CFCEA
:10A57000A348006805F07AFA9E4800789D498870E3
:10A580000420087066E24FF0FF319D48006805F036
:10A5900051FB984880680A21B0FBF1F0B0FBF1F262
:10A5A00001FB1204012221460020FEF72DFD9148F7
:10A5B00080680A21B0FBF1F201FB1204012221465E
:10A5C0000020FEF721FD8B4880686421B0FBF1F08C
:10A5D000C4B2002221461046FEF716FD8548806869
:10A5E0000A21B0FBF1F0B0FBF1F201FB120409E02B
:10A5F000F6E1E0E1AFE194E135E115E1A1E080E0D1
:10A6000044E029E02046FEF7A1FD7A4880680A214F
:10A61000B0FBF1F201FB12042046FEF797FD7548EE
:10A6200080686421B0FBF1F0C4B22046FEF78EFDD5
:10A6300000210220FDF7F0FE0021052000F064FB60
:10A640006F48006805F012FA6A4800786949487056
:10A6500088700E200870FDE16A484078512814D1B6
:10A66000002068494870634880686421B0FBF1F0BD
:10A67000C4B2012322461946184601F09FFC5D48EA
:10A6800000785C49887006200870E3E14FF0FF31E4
:10A690005B48006805F0CEFA564880680A21B0FB96
:10A6A000F1F0B0FBF1F201FB12040122214600207F
:10A6B000FEF7AAFC4F4880680A21B0FBF1F201FBCB
:10A6C0001204012221460020FEF79EFC4948C06882
:10A6D0006421B0FBF1F0C4B2002221461046FEF71F
:10A6E00093FC0021052000F00FFB4548006805F0B1
:10A6F000BDF9404800783F49487088700E200870C6
:10A70000A8E14048407851281AD100203D494870BE
:10A71000411E3B48006805F08DFA282205213AA029
:10A7200001F038FC0021092000F0EEFA34480068FE
:10A7300005F09CF92F4800782E4988700820087091
:10A7400088E13048407851286DD100202D4948706B
:10A75000411E2B48006805F06DFA2648C068642148
:10A76000B0FBF1F0C4B221460120FEF789FD21487B
:10A77000C0680A21B0FBF1F0B0FBF1F201FB12045A
:10A7800021460020FEF77CFD1A48C0680A21B0FB74
:10A79000F1F201FB120421460020FEF771FD4FF497
:10A7A0007A7006F031F94FF47A7006F02DF94FF413
:10A7B0007A7006F029F90021012000F055FB0021F4
:10A7C0000220FDF729FE0021052000F09DFA09482E
:10A7D000C0686421B0FBF1F0C4B20021204615E04E
:10A7E0004C636453686F775F6576656E7400000034
:10A7F00080010020040A0020100C01405E425F002E
:10A8000078010020040200205E4B5F0000F032F966
:10A810009348006805F02AF99248007891494870F9
:10A8200088700E20087015E18F484078512819D1A2
:10A8300000208D494870411E8948006805F0FAF9EA
:10A840000021084600F060FA0021084600F00CFBE9
:10A850008348006805F00AF98248007881498870C9
:10A860000A200870F6E04FF0FF317D48006805F0DF
:10A87000E1F97C48C0680A21B0FBF1F0B0FBF1F2CD
:10A8800001FB1204012221460020FEF7BDFB7548A2
:10A89000C0680A21B0FBF1F201FB1204012221463B
:10A8A0000020FEF7B1FB6F48C0686421B0FBF1F0F7
:10A8B000C4B2002221461046FEF7A6FB6948C068D4
:10A8C0000A21B0FBF1F0B0FBF1F201FB12042046CB
:10A8D000FEF73CFC6348C0680A21B0FBF1F201FBC3
:10A8E00012042046FEF732FC5E48C0686421B0FBCB
:10A8F000F1F0C4B22046FEF729FC00210220FDF74A
:10A900008BFD00210B2000F0FFF95548006805F091
:10A91000ADF8544800785349487088700E2008708C
:10A9200098E051484078512814D100204E49487091
:10A930004C48C0686421B0FBF1F0C4B20123224648
:10A940001946184601F03AFB464800784549887098
:10A950000C2008707EE04FF0FF314148006805F0A0
:10A9600069F94048C0680A21B0FBF1F0B0FBF1F290
:10A9700001FB1204012221461046FEF745FB39482F
:10A98000C0680A21B0FBF1F201FB1204012221464A
:10A990001046FEF739FB012204211046FEF734FB76
:10A9A0002F48006805F062F82E4800782D4988701D
:10A9B0000D2008704EE02C48407851280FD100201F
:10A9C0002949487004212948006803F05BFB2548A9
:10A9D000007824498870002008702349887039E085
:10A9E0002148407849282ED100201F49487028224C
:10A9F00002211FA001F0CEFA1A484078801E0928D3
:10AA00001AD2DFE800F0051909190D1911191500FE
:10AA100003201449087015E005201249087011E060
:10AA20000720104908700DE009200E49087009E060
:10AA30000B200C49087005E008210C48006803F061
:10AA400021FB00BF00BF05E008210848006803F0B3
:10AA500019FB00BF00BF1E2005F0D6FFCDE40000AB
:10AA600078010020040A0020040200208001002058
:10AA70005E505F0070B505460C46012D04D0022DD6
:10AA800007D0032D0FD109E040F267200949088063
:10AA900009E040F2CD500749088004E040F66F100D
:10AAA0000449088000BF00BF1CB14FF42F70FDF7B0
:10AAB000D9FE70BD402C014000BFFEE72DE9F04FEC
:10AAC00087B080460F461646012038490870482056
:10AAD000374908804FF6FF70A0EB0800091D088079
:10AAE000012E06D0022E0BD0032E10D0042E1CD126
:10AAF00014E030488168384607F0DAFC044615E077
:10AB00002C480169384607F0D3FC04460EE029487A
:10AB10008169384607F0CCFC044607E02548016A05
:10AB2000384607F0C5FC044600E000BF00BF2149DD
:10AB3000898DC82201FB02F007F08EFB21460190AF
:10AB400007F0EAFB834607F02BFA00221A4BCDE907
:10AB5000020107F037F8CDE9040107F08BF905464B
:10AB6000002D04DB3146012002F09EFD04E06D4221
:10AB70003146002002F098FD0E48808DC8214843E0
:10AB800095FBF0F90B48808D484395FBF0F100FBF5
:10AB9000115A484602F068FD1FFA8AF006F0ACFF31
:10ABA000044840F8367007B0BDE8F08F700300200D
:10ABB0002834014074030020008076402DE9FC5FBA
:10ABC00081460C46002049490870012C06D0022C11
:10ABD0000BD0032C10D0042C1CD114E04448816805
:10ABE000484607F065FC064615E0414801694846BD
:10ABF00007F05EFC06460EE03D488169484607F0D6
:10AC000057FC064607E03A48016A484607F050FC00
:10AC1000064600E000BF00BF3549898DC82201FB10
:10AC200002F007F019FB8346314607F075FB8246B8
:10AC300007F0B6F900222F4BCDE9000106F0C2FF64
:10AC4000074607F017F90546012C24D1002D03DB38
:10AC500001202949086003E06D4200202649086070
:10AC60000220264908800020244918310880091F45
:10AC70000880091F088022480068401E214951F8B9
:10AC80002000C0F34F001D490C31088029462046A2
:10AC900000F004F924E0022C22D1002D07DB012072
:10ACA0001549091D0860124850F8349018E06D42AB
:10ACB00000201149091D0860022010490880002069
:10ACC0000E4918310880091F08800C490C31088092
:10ACD0004FF47A70091D08802946204600F0DEF8FE
:10ACE000034840F83490BDE8FC9F0000700300204A
:10ACF0007403002000807640B08121422834014056
:10AD000008050020A80300202DE9F04704468946E5
:10AD10000A2C75D0022C73D00C2C4BD2DFE804F037
:10AD2000060B4A10151A2937451F4A2440F29E7017
:10AD30004A4908603EE040F2DB104849086039E0CB
:10AD400040F25F504549086034E040F2CC6043492E
:10AD500008602FE040F23F20404908602AE040F2BE
:10AD60005F503E49086025E040F26B303B49086087
:10AD700020E03A48006832303849086008460068E8
:10AD8000B0F5F76F02D340F29E70086012E03348CE
:10AD9000006832383149086008460068B0F5897F9C
:10ADA00002D84FF49670086004E04FF496702B4977
:10ADB000086000BF00BF2948006840F29E718842C9
:10ADC00042D826480068B0F5967F3DD323490968EC
:10ADD00040F29E72501A07F07CF80746204A214B39
:10ADE00006F0F0FE81F00041054606F0B9FE82460D
:10ADF000022251464FF69B70FFF760FE24E0FFE70A
:10AE0000022C06D00A2C09D140F2DB10134908604D
:10AE100004E040F297401149086000BF00BF0F49AD
:10AE2000096840F29E72501A07F053F805460C4A22
:10AE30000C4B06F0C7FE81F00041074606F090FE7D
:10AE400082460221FFF7BAFEB9F1000F02D0962028
:10AE5000FDF708FD01480068BDE8F08714050020F3
:10AE60006DC5FEB27BF2FA3F70B505460C4615B1D2
:10AE7000012D0AD104E001210020FFF79FFE04E02C
:10AE800001210548FFF79AFE00BF00BF14B1FA2068
:10AE9000FDF7E8FC70BD0000000024C370B5064655
:10AEA0000D4601207049C885012E7DD16F4800688C
:10AEB0004000A84204D36D4800684000A8424FD12A
:10AEC000002414E06A4830F824006A49088001210F
:10AED00068482C3801F041FA00BF634890F8300010
:10AEE0000028FAD00020604981F83000641C5F48D7
:10AEF00000688442E6D300240FE001215D482C382D
:10AF000001F02BFA00BF584890F830000028FAD022
:10AF10000020554981F83000641C54480068022123
:10AF200001FB1050A042E8D850480068441E14E0CD
:10AF30004F4830F824004F49088001214D482C38F3
:10AF400001F00BFA00BF484890F830000028FAD012
:10AF50000020454981F83000641E002CE8DA81E0C9
:10AF6000002414E0424830F82400424908800121BE
:10AF700040482C3801F0F1F900BF3B4890F8300010
:10AF80000028FAD00020384981F83000641CB4EB66
:10AF9000550FE7D305F0010080B1012135482C3869
:10AFA00001F0DBF900BF00E024E02F4890F830000A
:10AFB0000028F8D000202C4981F830000120C0EB97
:10AFC000550414E02A4830F824002A490880012159
:10AFD00028482C3801F0C1F900BF234890F8300010
:10AFE0000028FAD00020204981F83000641E002C8F
:10AFF000E8DA37E0022E35D1002413E04FF4FA608E
:10B000001C49088001211B482C3801F0A6F900BF1B
:10B01000154890F830000028FAD00020124981F835
:10B020003000641C14480068281AA042E6D8124870
:10B030000068441E14E0114830F824000D490880CF
:10B0400001210C482C3801F088F900BF064890F81F
:10B0500030000028FAD00020034981F83000641E37
:10B06000002CE8DA70BD0000740300200805002001
:10B07000A80300202C3401400C0500209C25010869
:10B08000FEB500230A2269466A48006804F038FACF
:10B090006846FCF73FFFC5B2002D6ED0032D6DDA78
:10B0A00040F29E76012D04D19DF800003038C4B2E4
:10B0B0000CE0022D0AD19DF8010030389DF80010F7
:10B0C000303901EB810100EB4100C4B24FF0FF3198
:10B0D0005948006804F0AEFD112C62D2DFE804F09C
:10B0E000090E13191F252B31363B3C42484F545A49
:10B0F000600000210846FFF7B7FE53E00021012061
:10B10000FFF7B2FE4EE000210846FFF7FDFD0646C0
:10B1100048E000210120FFF7F7FD064642E000214C
:10B120000220FFF7F1FD06463CE000210320FFF777
:10B13000EBFD064636E000210420FFF7E5FD06465C
:10B1400030E000210120FDF767F92BE000210846DF
:10B15000FDF762F926E025E000210620FFF7D4FD87
:10B1600006461FE000210720FFF7CEFD064619E046
:10B1700000210220FDF750F914E05AE01EE0002102
:10B180000A20FFF7C1FD0DE000210520FFF7BCFDFF
:10B19000064607E000210820FFF7B6FD064601E05D
:10B1A00000E000BF00BF2448006804F05FFC2346B5
:10B1B000324622A12548FCF737FD24E0032D1DD19E
:10B1C0009DF800003038642148439DF80110303963
:10B1D00001EB810100EB41019DF802003038084489
:10B1E000C4B26E2C04D101211948FDF71AFE0AE001
:10B1F0006A4618A11548FCF717FD04E06A4615A138
:10B200001248FCF711FD1148FCF784FE0646334650
:10B210000E4A11A11046FCF707FD0C48FCF77AFE18
:10B2200006B231460948FDF773F920210C48FDF7B5
:10B23000EEFAFEBD740100207801002048656967C0
:10B2400068743A25642C2564000000001C930020DB
:10B2500002F803082573000025732C25642C0000D8
:10B260005804024000B589B000200890059006906F
:10B270000790019002900390049000900121042017
:10B2800000F026F90121082000F022F90121102008
:10B2900000F01EF90121480300F01AF9F020ADF882
:10B2A000200010208DF8230003208DF8220008A92B
:10B2B0004948FDF7C8FDF0214748FDF7A0FE4BF2D5
:10B2C0000100ADF8200010208DF8230003208DF838
:10B2D000220008A94148FDF7B6FD4BF201013F48A5
:10B2E000FDF78FFE4FF47070ADF8200018208DF838
:10B2F000230003208DF8220008A93948FDF7A3FD9B
:10B300004FF470713648FDF77AFE364801F040F888
:10B310004FF6FE70ADF818004720ADF8140000207D
:10B32000ADF81A00ADF816008DF81C0005A92D48DF
:10B3300001F098FA6020ADF804000120ADF8060095
:10B34000ADF80A000020ADF80C0001A9254801F075
:10B350002DF901A9234801F07FF901A9214801F045
:10B36000DBF901A91F4801F031FA01211D4801F064
:10B3700000F808211B4801F065F90821194801F07F
:10B38000BDF90821174801F017FA0821154801F006
:10B390005BFA0121134800F0D1FF0121114800F0B0
:10B3A000D9FF012211460F4801F0F7F82C208DF843
:10B3B000000000208DF8010002208DF8020001201D
:10B3C0008DF80300684600F011F80021054800F0F0
:10B3D000C4FF09B000BD000000080140000C01409E
:10B3E00000100140003401407047000070B500219A
:10B3F00000230F22C47804B3154C246804F4E064DD
:10B40000C4F5E064210AC1F10403CA40447804FA97
:10B4100003F184781440214309010E4C0678A155AC
:10B42000047804F01F050124AC4005786D11AD00CF
:10B4300005F1E025C5F8004109E0047804F01F0596
:10B440000124AC40044D0678761145F8264070BDC5
:10B450000CED00E000E400E080E100E0024901437F
:10B46000024A1160704700000000FA050CED00E090
:10B4700029B1064A52690243044B5A6104E0034A67
:10B4800052698243014B5A6170470000001002402C
:10B4900029B1064AD2690243044BDA6104E0034A47
:10B4A000D2698243014BDA6170470000001002400C
:10B4B00029B1064A12690243044B1A6104E0034AA7
:10B4C00012698243014B1A6170470000001002406C
:10B4D00029B1064A92690243044B9A6104E0034A87
:10B4E00092698243014B9A6170470000001002404C
:10B4F00029B1064AD2680243044BDA6004E0034AE9
:10B50000D2688243014BDA607047000000100240AD
:10B5100030B500210022002400232D4D6D6805F078
:10B520000C0121B1042905D0082923D105E0294DBA
:10B53000056022E0274D05601FE0254D6D6805F48C
:10B540007012234D6D6805F48034022505EB92429C
:10B550001CB9214D554305600BE01D4D6D6805F488
:10B5600000351DB11C4D5543056002E0194D554392
:10B57000056002E0174D056000BF00BF144D6D6807
:10B5800005F0F0010909154D6B5C0568DD4045606B
:10B590000F4D6D6805F4E061090A104D6B5C45685C
:10B5A000DD4085600A4D6D6805F46051C90A0B4D98
:10B5B0006B5C4568DD40C560054D6D6805F4404134
:10B5C000890B074D6B5CC568B5FBF3F5056130BDB4
:10B5D0000010024000127A0000093D000A0200201B
:10B5E0001A0200201CB50023052269460C48006899
:10B5F00003F086FF6846FCF78DFC03280ED109484E
:10B60000807858B19DF800005E2807D19DF80200AF
:10B610005F2803D19DF80100024948701CBD00005D
:10B620006C0100200402002030B591B000234022BC
:10B6300001A91E48006803F063FF1D48406890BBE5
:10B640001C48807878B3242500208DF80A00002457
:10B6500025E0194850F8241001A8FCF749FCE0B196
:10B660002822022115A000F095FC154850F824006E
:10B670000F494860084640684FF47A71B0FBF1F01A
:10B680000B498860084640684FF47A71B0FBF1F2CC
:10B6900001FB12000649C86003E0601CC4B2AC4262
:10B6A000D7DB00BF00BF11B030BD0000700100202B
:10B6B000040A002004020020C00700205E4F5F0043
:10B6C0005008002021B1028842F04002028004E0CC
:10B6D00002884FF6BF731A400280704710B50446C7
:10B6E0001148844208D101218014FFF701FF002195
:10B6F000A014FFF7FDFE16E00C48844208D101219A
:10B700000014FFF7D5FE00212014FFF7D1FE0AE058
:10B710000748844207D10121C013FFF7C9FE002169
:10B72000E013FFF7C5FE10BD0030014000380040B7
:10B73000003C004010B50022028802F441520B8800
:10B740004C8823438C882343CC8823430C89234390
:10B750004C8923438C892343CC8923431A43028099
:10B76000838B4FF2FF74234083830B8A038210BDC7
:10B770007047000010B50446FDF7BAFF6FF07F4038
:10B78000FEF7ACFB0448FEF78FFB224678210A2027
:10B79000FEF7C8F910BD00006C05002038B504465E
:10B7A000FDF7A6FFFC48211A844271D03ADCFB4920
:10B7B000A4EB01008C426CD01DDCF949A4EB010024
:10B7C0008C4267D00BDCA4F5F030A0F1F300D8B3C5
:10B7D000092878D05A2872D06C286ED1A6E00928A2
:10B7E0006ED0A0F508506B3800286AD0092869D0BF
:10B7F0005A28F2D1FFE0EB4A811A904276D00ADC57
:10B80000512874D05A2873D0E7490844002870D0D2
:10B810000928E2D14EE112296CD063296BD06C2942
:10B82000DBD193E1DF4A7E32881A914277D016DC71
:10B83000C62975D009DC092973D05A2972D06C2920
:10B8400071D0BD29C9D1FEE125E0D7486C38084444
:10B85000002869D0092868D05A28BED13FE242F2B8
:10B860001632811A904274D00BDC512872D05A28BB
:10B8700071D0A0F50850BC3800286DD00928ACD193
:10B880008CE2122969D0632968D06C29A5D1D1E254
:10B890006FE1C3E063E0C5484FF48C737822002168
:10B8A00000901046FEF75AF9C1484FF48C73782285
:10B8B000002100900846FEF751F9CEE203E01BE0BC
:10B8C00060E072E084E0B9484FF48C737822002184
:10B8D00000901046FEF742F9B6484FF48C73782278
:10B8E000002100900846FEF739F9B6E2F5E0A8E03D
:10B8F000BAE0CCE004E116E1AC484FF48C73782256
:10B90000002100901046FEF729F9AB484FF48C73E4
:10B910007822002100900846FEF720F99DE2F1E12F
:10B92000A4E157E169E17BE1B3E1C5E19F484FF450
:10B930008C737822002100901046FEF70FF99F4883
:10B940004FF48C737822002100900846FEF706F928
:10B9500083E236E2E9E1FBE10DE245E257E293489A
:10B960004FF48C737822002100901046FEF7F6F811
:10B9700093484FF48C737822002100900846FEF71C
:10B98000EDF86AE289484FF48C7378220021009028
:10B990001046FEF7E3F88B484FF48C7378220021B1
:10B9A00000900846FEF7DAF857E287484FF48C73A8
:10B9B0007822002100901046FEF7D0F87C484FF422
:10B9C0008C737822002100900846FEF7C7F844E205
:10B9D0007D484FF48C737822002100901046FEF7CA
:10B9E000BDF874484FF48C7378220021009008460B
:10B9F000FEF7B4F831E274484FF48C7378220021DA
:10BA000000901046FEF7AAF86B484FF48C7378222A
:10BA1000002100900846FEF7A1F81EE26A484FF4A4
:10BA20008C737822002100901046FEF797F8634847
:10BA30004FF48C737822002100900846FEF78EF8B0
:10BA40000BE261484FF48C7378220021009010467D
:10BA5000FEF784F85A484FF48C7378220021009046
:10BA60000846FEF77BF8F8E157484FF48C737822CC
:10BA7000002100901046FEF771F852484FF48C7385
:10BA80007822002100900846FEF768F8E5E14F486B
:10BA90004FF48C737822002100901046FEF75EF878
:10BAA00043484FF48C737822002100900846FEF73B
:10BAB00055F8D2E145484FF48C737822002100906C
:10BAC0001046FEF74BF83B484FF48C737822002168
:10BAD00000900846FEF742F8BFE13C484FF48C73F3
:10BAE0007822002100901046FEF738F832484FF4D3
:10BAF0008C737822002100900846FEF72FF8ACE105
:10BB000032484FF48C737822002100901046FEF7E3
:10BB100025F82A484FF48C737822002100900846BB
:10BB2000FEF71CF899E129484FF48C737822002124
:10BB300000901046FEF712F821484FF48C737822DB
:10BB4000002100900846FEF709F886E11F484FF4EF
:10BB50008C737822002100901046FDF7FFFF1948F2
:10BB60004FF48C737822002100900846FDF7F6FF11
:10BB700073E117484FF48C7378220021009010462F
:10BB8000FDF7ECFF0A484FF48C73782200210090F7
:10BB90000846FDF7E3FF60E1D38603008704020057
:10BBA000B0E10100563C010004C4FEFFC86E01086C
:10BBB000006F0108086F0108106F0108186F010875
:10BBC000206F0108286F0108D06E0108E06E01089F
:10BBD000E86E0108A2484FF48C737822002100908F
:10BBE0001046FDF7BBFF9F484FF48C73782200216D
:10BBF00000900846FDF7B2FF2FE199484FF48C738F
:10BC00007822002100901046FDF7A8FF96484FF4D7
:10BC10008C737822002100900846FDF79FFF1CE1FD
:10BC20008F484FF48C737822002100901046FDF766
:10BC300095FF8E484FF48C737822002100900846BF
:10BC4000FDF78CFF09E186484FF48C7378220021C0
:10BC500000901046FDF782FF85484FF48C737822E0
:10BC6000002100900846FDF779FFF6E07C484FF48C
:10BC70008C737822002100901046FDF76FFF7D48FD
:10BC80004FF48C737822002100900846FDF766FF80
:10BC9000E3E079484FF48C7378220021009010463D
:10BCA000FDF75CFF75484FF48C73782200210090FB
:10BCB0000846FDF753FFD0E06F484FF48C737822AD
:10BCC000002100901046FDF749FF66484FF48C7341
:10BCD0007822002100900846FDF740FFBDE066484D
:10BCE0004FF48C737822002100901046FDF736FF48
:10BCF0005D484FF48C737822002100900846FDF7D0
:10BD00002DFFAAE05C484FF48C737822002100904C
:10BD10001046FDF723FF55484FF48C73782200211D
:10BD200000900846FDF71AFF97E053484FF48C73D4
:10BD30007822002100901046FDF710FF4C484FF488
:10BD40008C737822002100900846FDF707FF84E0FD
:10BD500049484FF48C737822002100901046FDF77B
:10BD6000FDFE44484FF48C73782200210090084671
:10BD7000FDF7F4FE71E042484FF48C737822002105
:10BD800000901046FDF7EAFE3C484FF48C73782291
:10BD9000002100900846FDF7E1FE5EE038484FF4D0
:10BDA0008C737822002100901046FDF7D7FE2D48B5
:10BDB0004FF48C737822002100900846FDF7CEFEE8
:10BDC0004BE02F484FF48C737822002100901046EE
:10BDD000FDF7C4FE24484FF48C73782200210090B4
:10BDE0000846FDF7BBFE38E025484FF48C737822F7
:10BDF000002100901046FDF7B1FE1C484FF48C73F3
:10BE00007822002100900846FDF7A8FE25E01C4896
:10BE10004FF48C737822002100901046FDF79EFEAF
:10BE200013484FF48C737822002100900846FDF7E8
:10BE300095FE12E012484FF48C7378220021009096
:10BE40001046FDF78BFE0B484FF48C7378220021CF
:10BE500000900846FDF782FE00BF00BF38BD00001D
:10BE6000E86E0108086F0108106F0108186F0108DB
:10BE7000206F0108286F0108F06E0108006F0108AB
:10BE8000F86E01082DE9F04707460E4615463E4874
:10BE9000006890F800904846FBF763FE04460020D7
:10BEA0003949096848603A4638A12046FBF7BCFE8C
:10BEB000AEB90AE034490968C868334909680A69B3
:10BEC000214690476420FCF7CDFC681E80B2051E19
:10BED000F0D12046FBF774FE0120BDE8F087002E6C
:10BEE0004CD047E028490968C868274909680A69A9
:10BEF000214690474FF000082EE01420FCF7B2FCDA
:10BF000021480068406818B31F49096888683146AD
:10BF1000FBF7EEFF80B11C4A126811781A4A1268CA
:10BF20009068FCF75BF800201749096848602046D4
:10BF3000FBF746FE0120D0E7134A12681178124A37
:10BF400012689068FCF74AF800200F4909684860B9
:10BF500008F1010000F0FF08B8F1050FCDDB012D5D
:10BF600004DC2046FBF72CFE0020B6E74FF4FA7005
:10BF7000FCF778FC681E80B2051EB3D12046FBF7A3
:10BF80001FFE0020A9E700002003002025730D0AF2
:10BF90000000000070B504460D46164621460548CF
:10BFA000006803F0CBF833462A462146024801F0E8
:10BFB000EDF970BD88010020004400402DE9F041FA
:10BFC00004460E4615461F46CCB9012D04D0022D5D
:10BFD00008D0032D12D10BE02822082123A0FFF75F
:10BFE000D9FF0BE02822082121A0FFF7D3FF05E0AD
:10BFF000282208211FA0FFF7CDFF00BF1BE0012C66
:10C0000019D1012D04D0022D08D0032D12D10BE03F
:10C010002822082118A0FFF7BDFF0BE028220821E5
:10C0200016A0FFF7B7FF05E02822082114A0FFF7AC
:10C03000B1FF00BF00BF3FB100210846FEF764FE1C
:10C0400000210846FEF710FF012E0DD10AE00A205C
:10C05000FCF708FC0B484078512803D1002009491F
:10C06000487000E0F3E700BFBDE8F0815E435F0089
:10C070005E445F005E455F005E4C5F005E4D5F00AA
:10C080005E4E5F000402002010B500F001F810BD04
:10C090000CB50020019000903348006840F48030D7
:10C0A0003149086000BF3048006800F4003000905B
:10C0B0000198401C0190009818B90198B0F5A06F44
:10C0C000F1D12948006800F4003010B1012000903F
:10C0D00001E0002000900098012843D12348006827
:10C0E00040F01000214908600846006820F0030075
:10C0F00008600846006840F0020008601A4840687E
:10C10000194948600846406848600846406840F45D
:10C11000806048600846406820F47C10486008460B
:10C12000406840F4E81048600846006840F08070BD
:10C13000086000BF0C48006800F000700028F9D0CB
:10C140000948406820F003000749486008464068F5
:10C1500040F00200486000BF0348406800F00C0057
:10C160000828F9D10CBD0000001002400020024058
:10C1700000B589B0002008900590069007900190C6
:10C180000290039004900121C802FFF7A1F9012158
:10C190000420FFF79DF94FF41060ADF8200018203F
:10C1A0008DF8230003208DF8220008A92A48FCF707
:10C1B0004AFE2A4800F0ECF840F6C310ADF818002B
:10C1C0004720ADF814000020ADF81600ADF81A00B5
:10C1D0008DF81C0005A9214800F044FB6020ADF853
:10C1E00004000120ADF806000020ADF80800ADF80D
:10C1F0000A00ADF80C00ADF80E004FF48070ADF8F9
:10C2000010000020ADF8120001A9144800F0CEF98A
:10C2100001A9124800F0DAFA0821104800F012FAD9
:10C2200008210E4800F010FB01210C4800F0A1F895
:10C2300001210A4800F082F840F24C4007493431AD
:10C24000088040F2CD500549403108800121034863
:10C2500000F083F809B000BD00080140002C014047
:10C2600010B502F0E5FB04F08DFF02F001FC10BDFB
:10C2700010B51348006840F00100114908600846F5
:10C280004068104908400E494860084600680E4959
:10C2900008400B4908600846006820F480200860C8
:10C2A0000846406820F4FE0048604FF41F00886094
:10C2B000FFF7EAFE4FF000600449086010BD00007F
:10C2C000001002400000FFF8FFFFF6FE08ED00E05E
:10C2D00010B50121154800F04FF928B31448007833
:10C2E000012815D113480068401C12490860124803
:10C2F000C08D0968884213D800200E4908600120CB
:10C300000D4981F830000021084800F026F807E0C8
:10C310000120094981F830000021044800F01DF88F
:10C320000121024800F016F810BD00000034014061
:10C3300070030020100500207403002021B1028842
:10C3400042F08002028004E002884FF67F731A40B8
:10C3500002807047CA430282704721B1028842F0CE
:10C360000102028004E002884FF6FE731A40028048
:10C37000704731B1B0F8442042F40042A0F84420A4
:10C3800005E0B0F84420C2F30E02A0F84420704744
:10C3900010B504466848844208D10121C014FFF753
:10C3A000A7F80021E014FFF7A3F8C4E0B4F1804F30
:10C3B00008D101210846FFF77BF800210120FFF793
:10C3C00077F8B8E05D48844208D101210220FFF7E8
:10C3D0006FF800210220FFF76BF8ACE05848844268
:10C3E00008D101210420FFF763F800210420FFF7A2
:10C3F0005FF8A0E05348844208D101210820FFF7EC
:10C4000057F800210820FFF753F894E04E48844283
:10C4100008D101211020FFF74BF800211020FFF771
:10C4200047F888E04948844208D101212020FFF7DD
:10C430003FF800212020FFF73BF87CE0444884428D
:10C4400008D101214014FFF753F800216014FFF7D1
:10C450004FF870E03F48844209D10121C804FFF73A
:10C4600047F800214FF40020FFF742F863E03A4814
:10C47000844209D101210805FFF73AF800214FF461
:10C480008010FFF735F856E03448844209D1012185
:10C490004805FFF72DF800214FF40010FFF728F8AA
:10C4A00049E02F48844208D101214020FFF700F8DD
:10C4B00000214020FEF7FCFF3DE02A48844208D1DD
:10C4C00001218020FEF7F4FF00218020FEF7F0FF1D
:10C4D00031E02548844208D101218015FEF7E8FFAC
:10C4E0000021A015FEF7E4FF25E02048844209D191
:10C4F00001210804FEF7FCFF00214FF48030FEF715
:10C50000F7FF18E01A48844209D101214804FEF7D8
:10C51000EFFF00214FF40030FEF7EAFF0BE0154873
:10C52000844208D101218804FEF7E2FF00214FF484
:10C530008020FEF7DDFF10BD002C0140000400400C
:10C5400000080040000C00400010004000140040B3
:10C5500000340140004C01400050014000540140B3
:10C5600000180040001C0040002000400040014036
:10C57000004401400048014030B50246002000233D
:10C580000024158A05EA0103958905EA010413B11F
:10C590000CB1012000E0002030BD1AB183890B43AB
:10C5A000838102E083898B438381704770B50024C7
:10C5B00000220023058C4FF6FE7635400584028C60
:10C5C0008388048B4FF68F752C40B51E2C400D8848
:10C5D0002C43751E2A400D892A434D882A43144D49
:10C5E000A8420BD0134DA84208D0134DA84205D045
:10C5F000124DA84202D0124DA84213D14FF6F77542
:10C600002A404D892A434FF6FB752A408D882A43DC
:10C610004FF6FF652B404FF6FF552B408D892B437E
:10C62000CD892B4383800483CD888586028470BDA9
:10C63000002C014000340140004001400044014012
:10C64000004801400A460021018B4FF6F77319405C
:10C65000114301837047000070B5002400220023BD
:10C66000058C4FF6EF7635400584028C8388048B69
:10C6700048F6FF752C404FF6FF452C400D884FF6CD
:10C68000FF7606EA05252C434FF6DF752A400D8913
:10C6900006EA05152A434D8806EA05152A43154D75
:10C6A000A84202D0144DA8421DD14FF67F752A40F2
:10C6B0004D894FF6FF7606EA05152A434FF6BF75FA
:10C6C0002A408D8806EA05152A434FF6FF352B4090
:10C6D0004FF2FF752B408D8906EA85052B43CD89E6
:10C6E00006EA85052B4383800483CD880587028471
:10C6F00070BD0000002C0140003401400A460021BA
:10C70000018B4FF2FF7319404FF6FF7303EA0223C8
:10C71000194301837047000070B5002400220023F4
:10C72000058C4FF6FF6635400584028C8388848B28
:10C730004FF68F752C404FF6FC752C400D882C431E
:10C740004FF6FF552A400D894FF6FF7606EA05257C
:10C750002A434D8806EA05252A43154DA84202D0F2
:10C76000144DA8421DD14FF2FF752A404D894FF656
:10C77000FF7606EA05252A434FF6FF352A408D88C5
:10C7800006EA05252A434EF6FF752B404DF6FF7548
:10C790002B408D8906EA05152B43CD8906EA051540
:10C7A0002B4383808483CD888587028470BD0000FD
:10C7B000002C0140003401400A460021818B4FF6D5
:10C7C000F7731940114381837047000070B5002250
:10C7D00000230024058C4EF6FF7635400584038C3B
:10C7E0008488828B48F6FF752A404FF6FF452A4021
:10C7F0000D884FF6FF7606EA05252A434DF6FF75AC
:10C800002B400D8906EA05352B434D8806EA053590
:10C810002B430B4DA84202D00A4DA84208D14BF63B
:10C82000FF752C408D894FF6FF7606EA85152C435F
:10C8300084808283CD88A0F84050038470BD0000BE
:10C84000002C0140003401400A460021818B4FF248
:10C85000FF7319404FF6FF7303EA022319438183E4
:10C8600070470000002202881D4B98420ED01D4BDD
:10C8700098420BD0B0F1804F08D01B4B984205D0A6
:10C880001A4B984202D01A4B984204D14FF68F733C
:10C890001A404B881A43174B984207D0164B9842C0
:10C8A00004D04FF6FF431A40CB881A4302808B888E
:10C8B00083850B8803850A4B98420BD0094B98421D
:10C8C00008D00E4B984205D00D4B984202D00D4B2C
:10C8D000984201D10B7A03860123838270470000BE
:10C8E000002C0140003401400004004000080040DA
:10C8F000000C0040001000400014004000400140C7
:10C90000004401400048014010B500210320FEF71B
:10C91000FBF901210020FBF77FFD25480078401C32
:10C920002349087000210846FEF7EEF90121002096
:10C93000FEF79AFA00210420FEF7E6F901210846E5
:10C94000FBF76AFD1A480078032820DB19480078B5
:10C9500002280CD1174880686421B0FBF1F0C4B202
:10C960000023224619461846FFF728FB0FE011481E
:10C97000007808280BD10F48C0686421B0FBF1F0A3
:10C98000C4B20023224619461846FFF717FB084891
:10C990000078032808DA00210120FEF765FA01215A
:10C9A0000320FEF7B1F902E000200149087010BD34
:10C9B00072070020040A002010B540F224411A48F2
:10C9C00000F08DFB00282DD01748001D0088174867
:10C9D000FBF7DAFED0B101201549087115484079FE
:10C9E00050B10A2214491548006802F0B5FE102122
:10C9F0001348006801F046FB0F482A300E490A68C8
:10CA000002604A6842600989018102E00DA0FBF7DB
:10CA1000FFF8094800210160416001810A210348B3
:10CA2000FBF7F5FE10BD0000004C00403004024052
:10CA3000389200200402002012930020740100208C
:10CA40007C0100205561727434204F766572666CEB
:10CA50006F77210010B540F22551134800F03FFBDD
:10CA6000A0B11248C08810280CDA0F4800F0F2FB81
:10CA70000E49C9880E4A50540C48C088401C0B49C6
:10CA8000C88003E000200949C880087140F22441B1
:10CA9000054800F024FB30B103488088002003499A
:10CAA000C8800120087110BD005000404492002051
:10CAB0005C93002010B592B00446002011900D90B8
:10CAC0000E900F9010902C2102A8FBF7A9FA0020DD
:10CAD000019001211020FEF7FBFC0121C804FEF7A4
:10CAE000D7FC4FF48060ADF8440018208DF8470063
:10CAF00003208DF8460011A95648FCF7A4F94FF41D
:10CB00000060ADF8440004208DF8470011A9514899
:10CB1000FCF799F9504800F087FA0D940020ADF821
:10CB20003800ADF83A00ADF83C00ADF840000C20FC
:10CB3000ADF83E000DA9484800F020FB34208DF8E8
:10CB4000040000208DF805008DF8060001208DF806
:10CB5000070001A8FEF74AFC012240F225513E4899
:10CB600000F0E7FA012240F224413B4800F0E1FAEC
:10CB700001210220FEF77CFC3848FBF75FFD3648B8
:10CB8000001D029036480390002004900A20059072
:10CB900000200690802007900020089009900A90BD
:10CBA0004FF480500B9000200C9002A92B48FBF70B
:10CBB0000EFE01212948FBF735FD012240212648C0
:10CBC00000F028FA01210220FEF752FC2348283009
:10CBD000FBF734FD2048001D029021480A300390E5
:10CBE00010200490202005900020069080200790BF
:10CBF0000020089009900A904FF480500B9000207C
:10CC00000C9002A915482830FBF7E1FD3B208DF878
:10CC1000040000208DF805008DF8060001208DF835
:10CC2000070001A8FEF7E2FB012202210B48283091
:10CC3000FBF7C4FD002109482830FBF7F3FC012273
:10CC40008021054800F0E6F90121034800F0D8F8FA
:10CC500012B010BD00100140004C004030040240F2
:10CC60001293002010B540F22441104800F037FA2A
:10CC7000D0B10E48001D00880D48FBF785FD18B1A6
:10CC800001200C49087102E00BA0FAF7C1FF002057
:10CC90000849C8800D480021016041608160C16081
:10CCA00010210348FBF7B3FD10BD00000038014020
:10CCB0005800024014920020557361727431204F65
:10CCC000766572666C6F772100000000509200203C
:10CCD00010B540F22441164800F001FA30B3144870
:10CCE000001D00881348FBF74FFD88B10120124951
:10CCF00008711248407970B1052211491148006845
:10CD000002F02AFD04211048006801F0BBF902E09E
:10CD10000EA0FAF77DFF00200749C88008480021CF
:10CD20000160017108210348FBF771FD10BD00008F
:10CD3000004400406C0002402092002004020020C9
:10CD4000709200206C0100207C01002055736172FC
:10CD50007432204F766572666C6F77210000000098
:10CD600010B540F22551204800F0B9F9A0B11F4894
:10CD7000C08840280CDA1C4800F06CFA1B49C988AE
:10CD80001B4A50541948C088401C1849C88003E009
:10CD900000201649C880087140F22441124800F072
:10CDA0009EF9F8B11048001D008801200F49087154
:10CDB0000020C8800F484079A0B140220C490E489D
:10CDC000006802F0C9FC08210C48006801F05AF91B
:10CDD0004022074901F15000FBF7BBF8402104480D
:10CDE000FBF7FCF810BD0000004800402C9200202A
:10CDF0008292002004020020700100207C010020AB
:10CE000021B1828942F40052828104E082894DF688
:10CE1000FF731A408281704710B592B0044600201B
:10CE200011900D900E900F9010902C2102A8FBF7FE
:10CE3000F7F80020019001210420FEF749FB0121B1
:10CE40004804FEF725FB0420ADF8440018208DF8B7
:10CE5000470003208DF8460011A93548FBF7F3FF82
:10CE60000820ADF8440004208DF8470011A930488F
:10CE7000FBF7E9FF2F4800F0D7F80D940020ADF83C
:10CE80003800ADF83A00ADF83C00ADF840000C2099
:10CE9000ADF83E000DA9274800F070F926208DF866
:10CEA000040000208DF805008DF8060001208DF8A3
:10CEB000070001A8FEF79AFA012240F225511D4809
:10CEC00000F037F9012240F224411B4800F031F90B
:10CED00001210846FEF7CCFA1848FBF7AFFB1548CE
:10CEE000001D029016480390002004900520059034
:10CEF00000200690802007900020089009900A905A
:10CF00004FF480500B9000200C9002A90B48FBF7C7
:10CF10005EFC01210948FBF785FB01224021054801
:10CF200000F078F801210348FFF76AFF12B010BD46
:10CF30000008014000440040003801406C000240FD
:10CF40007092002010B592B00446002011900D9010
:10CF50000E900F9010902C2102A8FBF761F8002092
:10CF6000019001210820FEF7B3FA01218804FEF7A1
:10CF70008FFA4FF48060ADF8440018208DF8470018
:10CF800003208DF8460011A92048FBF75CFF4FF401
:10CF90000060ADF8440004208DF8470011A91B483B
:10CFA000FBF751FF1A4800F03FF80D940020ADF850
:10CFB0003800ADF83A00ADF83C00ADF840000C2068
:10CFC000ADF83E000DA9124800F0D8F827208DF8E2
:10CFD000040000208DF805008DF8060001208DF872
:10CFE000070001A8FEF702FA012240F22551084885
:10CFF00000F09FF8012240F22441054800F099F822
:10D0000001210348FFF7FCFE12B010BD000C0140E7
:10D01000004800401AB1838A0B43838202E0838A6E
:10D020008B4383827047000010B504462048844239
:10D0300009D101218803FEF75BFA00214FF48040FB
:10D04000FEF756FA32E01B48844209D10121480418
:10D05000FEF72EFA00214FF40030FEF729FA25E002
:10D060001548844209D101218804FEF721FA0021E4
:10D070004FF48020FEF71CFA18E01048844209D1D2
:10D080000121C804FEF714FA00214FF40020FEF736
:10D090000FFA0BE00A48844208D101210805FEF787
:10D0A00007FA00214FF48010FEF702FA10BD0000CD
:10D0B000003801400044004000480040004C00405F
:10D0C0000050004002460020B1F5007F00D100BFB3
:10D0D00013880B400BB1012000E00020704770B5B1
:10D0E0000246002400230025002040F66A16B142C3
:10D0F00000D100BFC1F3421501F01F03012606FA5B
:10D1000003F3012D02D19689334006E0022D02D1AE
:10D11000168A334001E0968A33400C12012606FA43
:10D1200004F41688344013B10CB1012000E0002053
:10D1300070BDF0B50346002400260025002040F60F
:10D140006A17B94200D100BF1846C1F3421401F07A
:10D150001F06012707FA06F5012C01D10C3004E067
:10D16000022C01D1103000E014301AB107682F43AF
:10D17000076002E00768AF430760F0BD2DE9F047A4
:10D1800086B005460E460024A24600BFA1460027F1
:10D19000B08900B100BF2F462C8A4CF6FF700440C6
:10D1A000F08804432C82AC894EF6F3100440B0881A
:10D1B00031890843718908430443AC81AC8A4FF636
:10D1C000FF400440B0890443AC8201A8FEF7A0F9F7
:10D1D0001F48874202D1DDF810A001E0DDF80CA065
:10D1E000A88900F4004040B10AEBCA0000EB0A1025
:10D1F00031684900B0FBF1F807E00AEBCA0000EB28
:10D200000A1031688900B0FBF1F86420B8FBF0F037
:10D2100004012009642101FB1089A88900F4004061
:10D2200040B1322000EBC900B0FBF1F000F0070084
:10D23000044308E0322000EB09106421B0FBF1F058
:10D2400000F00F0004432C8106B0BDE8F087000019
:10D250000038014001468888C0F308007047C1F3D8
:10D2600008028280704700BFFEE700001CB5012164
:10D2700021A000F0C9FD22490860002305221146C3
:10D2800020A002F0CBF821490860002305224021AC
:10D290001FA002F0C3F820490860002305220A21DC
:10D2A0001EA002F0BBF81F490860002205211EA045
:10D2B00001F0F4FD1F4908601CE001A84FF0FF33A6
:10D2C00006221C2100900E48006800F0DFFD019846
:10D2D000042804D0082805D0102809D105E0FEF75D
